:020000040800F2
:100000001004002085260008B9250008BB2500083B
:10001000BD250008BF250008C1250008000000001C
:10002000000000000000000000000000C3250008E0
:10003000C525000800000000C7250008C9250008E4
:10004000B9260008BD260008C1260008C5260008FC
:10005000C9260008CD260008D1260008D5260008AC
:10006000D9260008DD260008E1260008E52600085C
:10007000E9260008ED260008F1260008F52600080C
:10008000F9260008FD2600080127000805270008BA
:10009000092700080D270008112700081527000868
:1000A000192700081D270008212700082527000818
:1000B000292700082D2700083127000835270008C8
:1000C000392700083D27000841270008D1250008EE
:1000D0004527000849270008D32500084D270008B8
:1000E0005127000855270008592700085D270008F8
:1000F0006127000865270008692700086D270008A8
:100100007127000875270008792700087D27000857
:100110008127000885270008892700088D27000807
:100120009127000895270008992700089D270008B7
:10013000A1270008A5270008A9270008AD27000867
:10014000B1270008B5270008B9270008BD27000817
:10015000C1270008C5270008C9270008CD270008C7
:10016000D1270008D5270008D9270008DD27000877
:10017000E1270008E5270008E92700080000000043
:10018000ED270008F12700082DE9F8430400002CB2
:1001900001D1012069E3DFF88409006810F00C0048
:1001A0000600DFF88409006810F0030007002078DB
:1001B000C00640F1DE80002E05D00C2E40F08A8073
:1001C000012F40F08780DFF850090068800704D5D0
:1001D000A069002801D1012047E3DFF83C0900684D
:1001E000000705D5DFF83009006810F0F00005E0E1
:1001F000DFF8D4090068000910F0F000216A884295
:1002000024D2206A00F092FC002801D001202CE3C7
:10021000DFF80409006850F00800DFF8FC180860F7
:10022000DFF8F408006830F0F000216A0843DFF8D6
:10023000E8180860DFF89409006830F47F40E1694D
:1002400050EA0120DFF88419086025E0DFF8C808CB
:10025000006850F00800DFF8C0180860DFF8B80840
:10026000006830F0F000216A0843DFF8AC1808603D
:10027000DFF85809006830F47F40E16950EA012056
:10028000DFF848190860002E06D1206A00F04EFC05
:10029000002801D00120E8E200F0C0FBDFF83019AF
:1002A000DFF878281268C2F30312895C11F01F018D
:1002B000C840DFF86C180860DFF86808006800F0D4
:1002C0009BFC80465FFA88F8B8F1000F51D0404699
:1002D000C0B2CAE2A069002834D0DFF83C08006848
:1002E00050F00100DFF83018086000F0B7FC05009E
:1002F000DFF824080068800706D400F0AFFC401B3C
:100300000328F5D30320B0E2DFF80C08006850F0B2
:100310000800DFF804180860DFF8FC07006830F018
:10032000F000216A0843DFF8F0170860DFF89C0846
:10033000006830F47F40E16950EA0120DFF88C1852
:10034000086016E0DFF8D007006840084000DFF8DA
:10035000C817086000F082FC0500DFF8BC070068E1
:10036000800706D500F07AFC401B0328F5D3032054
:100370007BE22078C00762D5082E03D00C2E0BD16B
:10038000032F09D1DFF890070068800357D5606814
:10039000002854D1012068E26068B0F5803F08D1A0
:1003A000DFF87407006850F48030DFF86C170860DD
:1003B00024E06068B0F5A02F10D1DFF85C0700687A
:1003C00050F48020DFF850170860DFF84C07006811
:1003D00050F48030DFF8401708600FE0DFF838078E
:1003E000006830F48030DFF830170860DFF8280745
:1003F000006830F48020DFF820170860606800286B
:100400000ED000F02BFC0500DFF80C07006880031D
:1004100015D400F023FC401B6528F5D3032024E20B
:1004200000F01CFC0500DFF8F0060068800306D52C
:1004300000F014FC401B6528F5D3032015E220785A
:10044000800758D5042E03D00C2E17D1022F15D1BA
:10045000DFF8C4060068400504D5E068002801D133
:10046000012002E2DFF86407006830F0F8502169EB
:1004700050EA0160DFF8541708603CE0E0680028AB
:1004800022D0DFF89406006850F48070DFF88816F8
:10049000086000F0E3FB0500DFF87C06006840051B
:1004A00006D400F0DBFB401B0328F5D30320DCE17E
:1004B000DFF81807006830F0F850216950EA016051
:1004C000DFF80817086016E0DFF84C06006830F423
:1004D0008070DFF84416086000F0C0FB0500DFF80C
:1004E00038060068400506D500F0B8FB401B03281D
:1004F000F5D30320B9E12078000730D560690028E2
:1005000016D0DFF8C406006850F00100DFF8B81616
:10051000086000F0A3FB0500DFF8AC060068800768
:100520001DD400F09BFB401B0328F5D303209CE166
:10053000DFF89406006840084000DFF88C16086079
:1005400000F08CFB0500DFF880060068800706D508
:1005500000F084FB401B0328F5D3032085E12078BD
:10056000400740F196805FF00009DFF868060068F8
:10057000C00010D4DFF85C06006850F08050DFF84F
:1005800054160860DFF84C06006810F080500090A8
:10059000009801208146DFF840060068C00516D4A7
:1005A000DFF83406006850F48070DFF82C1608601D
:1005B00000F054FB0500DFF820060068C00506D4F3
:1005C00000F04CFB401B0328F5D303204DE1A0684D
:1005D000012808D1DFF80406006850F00100DFF8B8
:1005E000FC15086023E0A068052810D1DFF8EC05B1
:1005F000006850F00400DFF8E4150860DFF8DC055F
:10060000006850F00100DFF8D41508600FE0DFF853
:10061000CC05006840084000DFF8C0150860DFF82E
:10062000BC05006830F00400DFF8B0150860A06871
:10063000002810D000F012FB0500DFF8A0050068CC
:10064000800719D400F00AFB401B41F2893188422F
:10065000F3D3032009E100F001FB0500DFF87C057E
:100660000068800708D500F0F9FA401B41F2893193
:100670008842F3D30320F8E05FFA89F9B9F1010F5A
:1006800007D1DFF85005006830F08050DFF84415DE
:100690000860A06A002800F0E780A06A022840F005
:1006A000BE80DFF884040068070017F00300E16AE9
:1006B000884228D117F07000216B491EB0EB011F52
:1006C00021D117F4FE40616BB0EB012F1BD1A06B61
:1006D000072801D1002000E0012017F400318142F9
:1006E00011D117F4C000E16B891E0905490D4905B8
:1006F000884208D117F0C060216C891E090611F0EC
:100700007E41884267D00C2E63D0DFF80C0400686D
:10071000400104D4DFF800040068C00001D50120C6
:10072000A3E0DFF8F403006830F08070DFF8E8132E
:10073000086000F093FA0500DFF8DC030068800130
:1007400006D500F08BFA401B0328F5D303208CE07C
:10075000DFF8D4030068DFF888140840E16A084332
:10076000216B491E50EA0110616B50EA0120E16BD8
:10077000891E0905490D49050843216C891E090692
:1007800011F07E410843A16B090950EA4140DFF8AE
:1007900098130860DFF88003006850F08070DFF87D
:1007A00078130860DFF88003006850F08070DFF88D
:1007B0007813086000F052FA0500DFF85C03006867
:1007C000800151D400F04AFA401B0328F5D30320DE
:1007D0004BE0012049E0DFF840030068800143D48A
:1007E000DFF83403006850F08070DFF82C130860E5
:1007F000DFF83403006850F08070DFF82C130860D5
:1008000000F02CFA0500DFF81003006880012BD4FB
:1008100000F024FA401B0328F5D3032025E00C2E1A
:1008200020D0DFF8F402006830F08070DFF8E812C2
:10083000086000F013FA0500DFF8DC0200688001B0
:1008400006D500F00BFA401B0328F5D303200CE07B
:10085000DFF8D4020068DFF88C130840DFF8C81214
:10086000086001E0012000E00020BDE8F283F8B557
:1008700004000D00002C01D10120CEE0DFF8680358
:10088000006810F00700A84211D2DFF85C0300688E
:10089000C008C0002843DFF850130860DFF84803A1
:1008A000006810F00700A84201D00120B5E02078D0
:1008B000800711D5DFF86402006810F0F000A1682D
:1008C000884209D2DFF85402006830F0F000A168D5
:1008D0000843DFF8481208602078C00743D56068F5
:1008E000032806D1DFF83002006880011CD4012003
:1008F00093E06068022806D1DFF81C0200688003DC
:1009000012D4012089E06068002806D1DFF80802CF
:100910000068800708D401207FE0DFF8FC01006850
:10092000400501D4012078E0DFF8F001006880087C
:10093000800061680843DFF8E411086000F08EF978
:100940000600DFF8D801006810F00C006168B0EB19
:10095000810F08D000F082F9801B41F28931884272
:10096000EFD3032059E02078800711D5A068DFF885
:10097000AC11096811F0F001884209D2DFF89C013E
:10098000006830F0F000A1680843DFF890110860BB
:10099000DFF85402006810F00700854211D2DFF83A
:1009A00048020068C008C0002843DFF83C12086015
:1009B000DFF83402006810F00700A84201D00120DF
:1009C0002BE02078400707D55448006830F4E060F9
:1009D000E1680843514908602078000708D54F486E
:1009E000006830F46050216950EAC1004B4908604A
:1009F00000F014F8DFF8D811484A1268C2F3031265
:100A0000895C11F01F01C8404549086045480068ED
:100A100000F0F2F807003800C0B2F2BDF0B40021D7
:100A20000020DFF8F8C0DCF800C01CF00C0C6646B3
:100A3000DFF8F4C0DCF800C01CF0030C6746002EA1
:100A400003D00C2E1FD1012F1DD1DFF8CCC0DCF854
:100A500000C05FEA0C7C07D4DFF86CC1DCF800C092
:100A6000CCF3032C614606E0DFF8ACC0DCF800C034
:100A7000CCF3031C6146DFF874C15CF82110002E32
:100A80000CD108000AE0042E03D1DFF864C16046EF
:100A900004E0082E02D1DFF85CC160460C2E38D18C
:100AA000DFF884C0DCF800C01CF0030C63469C46F1
:100AB000BCF1020F03D0BCF1030F04D007E0DFF854
:100AC00030C1624604E0DFF82CC1624600E00A0053
:100AD000DFF854C0DCF800C0CCF3021C1CF1010CA0
:100AE0006546DFF844C0DCF800C0CCF3062C0CFBF4
:100AF00002F2B2FBF5F2DFF830C0DCF800C0CCF354
:100B0000416C1CF1010C5FEA4C0C6446B2FBF4FC36
:100B10006046F0BC70470000001002400810024020
:100B200004000020000000200C10024070B582B0CC
:100B30000400002627480068C00003D500F094F8A0
:100B4000050014E02348006850F0805021490860F7
:100B50002048006810F080500090009800F084F861
:100B600005001C48006830F080501A490860B5F54F
:100B7000007F09D1812C15D3A12C02D302200600BD
:100B800010E0012006000DE0812C02D303200600B6
:100B900008E0802C02D10220060003E0702C01D175
:100BA0000120060010480068C008C00030430E490C
:100BB00008600D48006810F00700B04201D0012025
:100BC00000E0002076BD00009410024004100240B6
:100BD0007426000858100240007000409010024037
:100BE0008C809DF9FCFFEEFE00200240FC240008F2
:100BF0000024F40000127A0038B5040000251448DF
:100C0000007800281ED04FF47A7011490978B0FBA3
:100C1000F1F010490968B1FBF0F000F0F0F800289D
:100C20000DD1102C08D2002221005FF0FF3000F01F
:100C3000D3F80948046007E00120050004E0012022
:100C4000050001E0012005002800C0B232BD00BF50
:100C50000C00002004000020000000200148006873
:100C6000704700BF08000020DFF89400006810F40F
:100C7000C06070470100B1F5007F2CD1DFF8800023
:100C8000006810F4C060B0F5007F36D0DFF8700067
:100C9000006830F4C06050F40070DFF86430186011
:100CA000DFF86000006832235843DFF85C30B0FBA7
:100CB000F3F0401C0200DFF854000068400503D543
:100CC000002A01D0521EF6E7DFF840000068400518
:100CD00013D5032012E0DFF82800006810F4C0608C
:100CE000B0F5806F09D0DFF81800006830F4C060FC
:100CF00050F48060DFF80830186000207047000072
:100D0000007000400400002040420F0014700040BA
:100D100010F007023D4B1B6819004FF6FF03194006
:100D20003B4B53EA02231943384B1960704737484D
:100D30000068C0F30220704710B440B2002804D409
:100D40000A01344B40B21A5407E00A01324B40B258
:100D500010F00F04234403F8042C10BC704770B447
:100D6000030013F00704D4F10706052E01D3042075
:100D700001E0D4F10700261D072E01D2002500E076
:100D8000E51E012616FA00F0401E0840A840012189
:100D9000A940491E1140084370BC704710B50400BB
:100DA000601EB0F1807F01D301200EE0601E1B4960
:100DB00008600F215FF0FF30FFF7BEFF00201849E9
:100DC0000860072017490860002010BD10B5040016
:100DD0002000FFF79DFF10BDF8B504000D001600C0
:100DE0000027FFF7A4FF0700320029003800FFF7B3
:100DF000B6FF0100200040B2FFF79EFFF1BD10B525
:100E000004002000FFF7CAFF10BD00000CED00E059
:100E10000000FA0500E400E018ED00E014E000E056
:100E200018E000E010E000E02DE9F843040000279E
:100E30005FF000082068000534D5606E002812D0ED
:100E4000B0F5800F15D0B0F5000F03D0B0F5400F0E
:100E500016D016E0DFF86404006850F48030DFF844
:100E60005C1408600FE00021201D00F031FA07003B
:100E700009E0002114F1200000F0FAFA070002E076
:100E800001E001200700FFB2002F0AD1DFF8300493
:100E9000006830F44000616E0843DFF824140860F5
:100EA00000E0B8462068C00434D5A06E002812D0F7
:100EB000B0F1807F15D0B0F1007F03D0B0F1407F5A
:100EC00016D016E0DFF8F403006850F48030DFF845
:100ED000EC1308600FE00021201D00F0F9F9070075
:100EE00009E0002114F1200000F0C2FA070002E03E
:100EF00001E001200700FFB2002F0AD1DFF8C00394
:100F0000006830F04070A16E0843DFF8B413086049
:100F100000E0B8462068800340F189805FF0000956
:100F2000DFF8A0030068C00010D4DFF89803006861
:100F300050F08050DFF88C130860DFF888030068F9
:100F400010F080500090009801208146DFF878036F
:100F5000006850F48070DFF870130860FFF77EFEC1
:100F60000600DFF864030068C00506D4FFF776FECC
:100F7000801B0328F5D303200700FFB2002F48D1C0
:100F8000DFF84803006810F440700500002D1CD005
:100F9000D4F88400854218D0DFF83003006830F4BC
:100FA00040700500DFF82403006850F48030DFF85B
:100FB0001C130860DFF81403006830F48030DFF899
:100FC0000C130860DFF804030560E80710D5FFF78D
:100FD00045FE0600DFF8F4020068800708D4FFF73A
:100FE0003DFE801B41F289318842F3D30320070084
:100FF000FFB2002F0BD1DFF8D402006830F440704C
:10100000D4F884100843DFF8C412086002E0B84640
:1010100000E0B8465FFA89F9B9F1010F07D1DFF8AE
:10102000A402006830F08050DFF898120860207841
:10103000C00709D5DFF88802006880088000A16B2E
:101040000843DFF87C1208602078800709D5DFF8B4
:101050007002006830F00C00E16B0843DFF86012AA
:1010600008602078400709D5DFF85402006830F0A6
:101070003000216C0843DFF8481208602078000730
:1010800009D5DFF83C02006830F0C000616C08430D
:10109000DFF82C1208602078C00609D5DFF820029E
:1010A000006830F44070A16C0843DFF81412086047
:1010B0002078800609D5DFF80802006830F4406027
:1010C000E16C0843DFF8F81108602068800509D555
:1010D000DFF8EC01006830F44020E16D0843DFF8F0
:1010E000E01108602068400509D5DFF8D4010068E8
:1010F00030F44010216E0843DFF8C41108602078F6
:10110000400609D5DFF8B801006830F44050216D81
:101110000843DFF8AC1108602078000609D5DFF835
:10112000A001006830F44040616D0843DFF8901181
:1011300008602068C00509D5DFF88401006830F434
:101140004030A16D0843DFF8781108602068800402
:1011500021D5DFF86C01006830F04060E16E084393
:10116000DFF85C110860E06EB0F1006F06D1534803
:10117000006850F48010514908600CE0E06EB0F156
:10118000806F08D10121201D00F0A2F80700FFB2F6
:10119000002F00D0B8462068000321D5DFF82001D9
:1011A000006830F04060216F0843DFF814110860D8
:1011B000206FB0F1006F06D14048006850F48010F5
:1011C0003E4908600CE0206FB0F1806F08D101212A
:1011D000201D00F07DF80700FFB2002F00D0B846B8
:1011E0002068400321D5DFF8D800006830F0406067
:1011F000616F0843DFF8C8100860606FB0F1006FDE
:1012000006D12E48006850F480102C4908600CE08C
:10121000606FB0F1806F08D10121201D00F058F8F7
:101220000700FFB2002F00D0B8462068400425D543
:10123000DFF88C00006830F04050A16F0843DFF801
:1012400080100860A06FB0F1805F09D10221201DDD
:1012500000F03EF80700FFB2002F0FD0B8460DE0B7
:10126000A06FB0F1005F09D1022114F1200000F05D
:10127000FFF80700FFB2002F00D0B8462068000436
:1012800009D5DFF83C00006830F08040E16F08438A
:10129000DFF82C1008602068C0030AD5DFF82000B2
:1012A000006820F00040D4F880100843DFF81010E8
:1012B00008604046C0B2BDE8F28300000C10024056
:1012C0008810024058100240007000409010024008
:1012D000F8B504000D000027DFF8EC02006810F0FC
:1012E000030F16D0DFF8E002006810F00300216859
:1012F00088420BD12068002808D0DFF8CC020068B3
:10130000C0F30210401C616888423AD001200700F7
:1013100037E02068012804D020D3032811D008D357
:101320001CE0DFF8A0020068800701D4012007005C
:1013300016E0DFF890020068400501D401200700A4
:101340000EE0DFF880020068800306D4DFF8740244
:101350000068400301D40120070001E001200700DC
:10136000FFB2002F0DD1DFF86002006830F073008B
:10137000216808436168491E50EA0110DFF84812ED
:101380000860FFB2002F70D1DFF83802006830F03B
:101390008060DFF830120860FFF760FC0600DFF8BD
:1013A00024020068000106D5FFF758FC801B0328C3
:1013B000F5D303200700FFB2002F56D1002D10D126
:1013C000DFF808020068DFF808120840A16850EA58
:1013D0000120E168090950EA4140DFF8F011086096
:1013E00026E0012D12D1DFF8E4010068DFF8E411F6
:1013F0000840A16850EA01202169891E0905490DAC
:1014000049050843DFF8C411086011E0DFF8BC01AA
:101410000068DFF8C4110840A16850EA0120616942
:10142000891E090611F07E410843DFF8A01108600B
:101430006448006850F0806062490860FFF70EFC65
:10144000060060480068000106D4FFF707FC801B17
:101450000328F6D303200700FFB2002F05D15B4815
:101460000068A1690843594908603800C0B2F2BD5C
:10147000F8B504000D0000275348006810F0030F72
:1014800014D05148006810F00300216888420AD146
:101490002068002807D04C480068C0F30210401CA8
:1014A0006168884234D00120070031E020680128BB
:1014B00004D01CD303280FD007D318E0414800689C
:1014C000800701D40120070013E03E480068400572
:1014D00001D4012007000CE03A480068800305D4DD
:1014E00038480068400301D40120070001E00120D2
:1014F0000700FFB2002F0BD13348006830F07300B3
:10150000216808436168491E50EA01102E490860AD
:10151000FFB2002F52D12B48006830F0805029498B
:101520000860FFF79BFB060026480068800006D590
:10153000FFF794FB801B0328F6D303200700FFB2BC
:10154000002F3BD1002D0DD12448006820490840D0
:10155000A16850EA0120E168090950EA41401F49A9
:1015600008600EE01D4800681B490840A16850EA69
:1015700001202169891E090611F07E41084317499F
:1015800008601048006850F080500E490860FFF76E
:1015900065FB06000B480068800006D4FFF75EFB81
:1015A000801B0328F6D303200700FFB2002F05D1CC
:1015B0000A48006861690843084908603800C0B2F9
:1015C000F2BD0000001002400C100240101002405A
:1015D000FF80FDFFFF809FFFFF80FFF91410024096
:1015E000DFF868030068800A10F001007047DFF838
:1015F00078030068400810F001007047DFF84C03E2
:101600000068C00810F001007047DFF84003006870
:1016100010F0F0007047DFF86C03006810F47060A1
:101620007047DFF86403006810F00C007047DFF8C3
:101630005803006810F0F0007047DFF84C030068B2
:1016400010F4E0607047DFF84003006810F4605069
:101650007047DFF838130968014051EA00407047CD
:10166000DFF828130968014051EA00407047DFF8AD
:10167000F003006810F003007047DFF8E40300682F
:10168000C0F306207047DFF8D803006810F0C06090
:101690007047DFF8CC03006810F07000704738B571
:1016A00004000025032C2AD12000FFF7D2FF5FF4AD
:1016B0004031401A1AD0401E04D0401E06D0401EB1
:1016C0000CD01BE000F0D8F8050071E0FFF788FFB0
:1016D000002802D0DFF88C03050069E0FFF787FFE0
:1016E000002802D04FF40040050061E000F0C4F88B
:1016F00000F01FF900F03AF9050059E058E00C2C11
:101700002AD12000FFF7A5FF5FF44021401A1AD02C
:10171000001F04D0001F06D0001F0CD01BE000F0FB
:10172000ABF8050044E0FFF75BFF002802D0DFF8CC
:10173000340305003CE0FFF75AFF002802D04FF4C5
:101740000040050034E000F097F800F0F2F800F0F7
:10175000FFF805002CE02BE0302C29D12000FFF70A
:1017600078FF5FF44011401A1AD0103804D01038B6
:1017700006D010380CD01BE000F07EF8050017E012
:10178000FFF72EFF002802D0DFF8D80205000FE097
:10179000FFF72DFF002802D04FF40040050007E0BE
:1017A00000F06AF800F0C5F800F0D2F80500FFE795
:1017B000280032BD38B504000025C02C29D12000F6
:1017C000FFF74EFF5FF44001401A1AD0403804D0B2
:1017D000403806D040380CD01BE000F04DF8050032
:1017E00017E0FFF7FDFE002802D0DFF878020500C1
:1017F0000FE0FFF7FCFE002802D04FF40040050088
:1018000007E000F039F800F094F800F0A1F80500C6
:10181000FFE7B4F5407F2DD12000FFF721FFB0F1A5
:10182000407F1FD0DFF84012884207D0DFF83C121B
:10183000884207D0B0F1032F0CD01BE000F01CF859
:10184000050017E0FFF7CCFE002802D0DFF81402F5
:1018500005000FE0FFF7CBFE002802D04FF4004058
:10186000050007E000F008F800F063F800F070F8F9
:101870000500FFE7280032BD10B5FFF7D2FE0028B3
:1018800006D0042826D0082828D00C282AD02DE0FD
:10189000FFF7B4FE00280ED1FFF7B0FE002802D0FB
:1018A000FFF7B3FE01E0FFF7B6FEDFF8C411000A50
:1018B00051F820400DE0FFF7A1FE002802D0FFF70D
:1018C000A4FE01E0FFF7A7FEDFF8A411000951F81C
:1018D00020402CE0DFF88C01040028E0DFF89401C0
:1018E000040024E000F054F8040020E0FFF786FE36
:1018F00000280ED1FFF782FE002802D0FFF785FEF8
:1019000001E0FFF788FEDFF86811000A51F8204077
:101910000DE0FFF773FE002802D0FFF776FE01E02E
:10192000FFF779FEDFF84811000951F82040200048
:1019300010BD10B50400FFF77AFEDFF83C11C0F3CC
:101940000310085CC440200010BD000000100240DD
:1019500010B50400FFF771FEDFF82011000A085CE3
:10196000C440200010BD00009010024010B50400DB
:10197000FFF769FEDFF80411C00A085CC4402000CC
:1019800010BD000094100240081002408810024070
:1019900070B5FFF76CFE0400012C04D02CD3032C8F
:1019A00026D022D328E0FFF729FE00280ED1FFF72A
:1019B00025FE002802D0FFF728FE01E0FFF72BFEEE
:1019C000DFF8AC10000A51F820500DE0FFF716FECA
:1019D000002802D0FFF719FE01E0FFF71CFEDFF838
:1019E0009010000951F8205027E01E48050024E01F
:1019F000DFF88000050020E0FFF700FE00280ED190
:101A0000FFF7FCFD002802D0FFF7FFFD01E0FFF724
:101A100002FEDFF85C10000A51F820500DE0FFF7DD
:101A2000EDFD002802D0FFF7F0FD01E0FFF7F3FD28
:101A3000DFF83C10000951F82050FFF72AFE06009D
:101A4000FFF71BFE3109491CB5FBF1F100FB01F664
:101A5000FFF719FE400E401C4000B6FBF0F070BDD1
:101A60000C1002400024F4000001000300020003F7
:101A7000FC24000800127A0074260008B026000832
:101A8000DFF8F4030068C0F30220704740B200287A
:101A900009D4012110F01F029140DFF8E02340B289
:101AA000430942F82310704710B440B2002805D40F
:101AB0000A01DFF8CC3340B21A5408E00A01DFF81B
:101AC000C43340B210F00F04234403F8042C10BCBC
:101AD000704770B4030013F00704D4F10706052E15
:101AE00001D3042001E0D4F10700261D072E01D206
:101AF000002500E0E51E012616FA00F0401E084011
:101B0000A8400121A940491E1140084370BC7047FC
:101B1000426832F010020A4342607047416851F057
:101B2000080141607047007B70470173704701688E
:101B300051F0010101607047416831F4904141600A
:101B4000816831F02A018160704781B0CE4909680F
:101B50000143CD4A1160CC490968014000910099C8
:101B600001B0704781B0C94909680143C74A116093
:101B7000C649096801400091009901B0704781B0E1
:101B8000C34909680143C24A1160C149096801405B
:101B90000091009901B070472DE9F04104000D005B
:101BA00016001F005FF000084046390080B289B27D
:101BB000884213D21FFA88F815F80810B548FFF7C5
:101BC000B4FF642000F074F9B248FFF7ACFF1FFACD
:101BD00088F806F8080018F10108E5E7BDE8F0818B
:101BE00080B501224FF48051AB4800F06FFA6420B9
:101BF00000F05EF98021A748FFF797FF01BD80B58F
:101C000000F086FA00F01DF800F002F900F050F83C
:101C100000F0A3F8FFF7E4FFA0480088ADF800004B
:101C200002230DF1020269469A48FFF7B5FF6420CE
:101C300000F03EF900224FF48051974800F046FA38
:101C4000FEE700B597B005A8442100F073FA684696
:101C5000142100F06FFA4FF40070FFF70BF8002822
:101C600001D000F023F91020059001200B900020F6
:101C70000C9060200D9000200F9005A8FEF784FACC
:101C8000002801D000F012F90F20009000200190F0
:101C9000002002900020039000200490002168465C
:101CA000FEF7E5FD002801D000F000F917B000BDF7
:101CB00000B591B006A8282100F03CFA68467849A2
:101CC00091EC060B80EC060B4FF48050FFF757FFAA
:101CD0000120FFF73AFFE02000900220019003204E
:101CE0000290002003900020049005200590694692
:101CF0005FF0904000F0A5FAFFF7C2FE002200213D
:101D0000FFF7E7FE01002320FFF7CEFE2320FFF7B9
:101D1000BDFE002006904FF4827007904FF43060B3
:101D200008900020099000200A904FF400700B905A
:101D300000200C9000200D9000200E9007200F90A6
:101D400006A9544800F0CFFA00215248FFF7E0FE00
:101D50005048FFF7E3FE11B000BD00B5AFB006A8D4
:101D60001C2100F0E7F968464E4991EC060B80EC27
:101D7000060B0DA8882100F0DDF902200D9000204F
:101D80001C900DA8FFF750F8002801D000F08EF845
:101D90005FF40030FFF7E6FE0120FFF7D6FE0C20CF
:101DA0000090022001900320029000200390002068
:101DB00004900720059069465FF0904000F041FADA
:101DC000FFF75EFE00220021FFF783FE01002620C0
:101DD000FFF76AFE2620FFF759FE5FF4E130069018
:101DE0000020079000200890002009900C200A9005
:101DF00000200B9000200C9006A92B4800F0E0FA80
:101E00002948FFF799FE2848FFF791FE2FB000BD43
:101E100000B587B001A8142100F08CF91A480068B9
:101E200050F00100184908601748006810F00100E0
:101E3000009000981448006850F0100012490860A3
:101E40001148006810F010000090009800224FF434
:101E50008051114800F03AF94FF480500190012070
:101E60000290002003900020049001A90A4800F08D
:101E700033F807B000BD00000CED00E000E100E029
:101E800000E400E018ED00E04C1002405810024061
:101E90006010024000300140001000483A21000864
:101EA00030260008482600080044004072B6FEE7CD
:101EB00070B50400FEF7D2FE0500260016F1010FF2
:101EC00002D0044800783618FEF7C8FE401BB04226
:101ED000FAD370BD0C00002078B400220D68D54004
:101EE000002D00F0F1800D680126964035402B0052
:101EF000002B00F0E7800D7915F00305012D04D0CB
:101F00000D7915F00305022D19D185682C000325E4
:101F10001600F6B27600B540AC43CD681600F6B2B6
:101F20007600B5402C43846045682C00012595401F
:101F3000AC434D68C5F3001595402C4344600D79C2
:101F400015F00305032D0AD1C56A2C000125954023
:101F5000AC434D68C5F3C00595402C43C4620D7970
:101F600015F00305032D0ED0C5682C0003251600BF
:101F7000F6B27600B540AC438D681600F6B2760036
:101F8000B5402C43C4600D7915F00305022D16D120
:101F9000D50800EB85052D6A2C000F2512F00706E9
:101FA000F6B2B600B540AC430D6912F00706F6B2C2
:101FB000B600B5402C43D50800EB85052C620568BA
:101FC0002C0003251600F6B27600B540AC430D791F
:101FD00015F003051600F6B27600B5402C430460F8
:101FE0004D6815F4403F6DD03D4D2D6855F001050D
:101FF0003B4E35603A4D2D6815F001050095009D6A
:10200000384D960855F826502C000F2512F003067F
:10201000F6B2B600B540AC43B0F1904F01D1002507
:102020001EE0314DA84201D1012519E02F4DA842F3
:1020300001D1022514E02E4DA84201D103250FE065
:102040002C4DA84201D104250AE02B4DA84201D114
:10205000052505E0294DA84201D1062500E0072508
:1020600012F00306F6B2B600B5402C431D4D96089B
:1020700045F82640224D2D682C009C434D68ED020A
:1020800000D51C431E4D2C601E4D2D682C009C431A
:102090004D68AD0200D51C431A4D2C601A4D2D68B9
:1020A0002C009C434D68AD0300D51C43164D2C609D
:1020B000164D2D682C009C434D68ED0300D51C4344
:1020C000124D2C60521C09E771BC7047D2B2002A35
:1020D00002D089B2816101E089B28162704700005B
:1020E0006010024008000140000400480008004859
:1020F000000C004800100048001400480018004878
:10210000080401400C0401400404014000040140A3
:1021100010B500240320FEF759FE0F20FEF76CFDDA
:10212000002802D00120040001E000F0ADF92000F9
:10213000C0B210BD002200F0C7B9010230B403687C
:1021400091FAA1F4B4FA84F40325E4B2640015FA18
:1021500004F4A34391FAA1F4B4FA84F4E4B2640061
:1021600012FA04F42343036030BC704710B4436890
:102170008B4302FB01F42343436010BC704730B42F
:10218000836891FAA1F4B4FA84F40325E4B26400FC
:1021900015FA04F4A34391FAA1F4B4FA84F4E4B276
:1021A000640012FA04F42343836030BC704730B4F7
:1021B000C36891FAA1F4B4FA84F40325E4B264008C
:1021C00015FA04F4A34391FAA1F4B4FA84F4E4B246
:1021D000640012FA04F42343C36030BC704730B487
:1021E000036A91FAA1F4B4FA84F40F25E4B2A400CE
:1021F00015FA04F4A34391FAA1F4B4FA84F4E4B216
:10220000A40012FA04F42343036230BC704730B4D4
:10221000436A0C0A94FAA4F4B4FA84F40F25E4B2E5
:10222000A40015FA04F4A3430C0A94FAA4F4B4FA33
:1022300084F4E4B2A40012FA04F42343436230BCF1
:102240007047F8B504000D00286890FAA0F0B0FAC5
:1022500080F006002868F040002832D0286801216C
:10226000B14008400700002F29D06868012802D03B
:102270006868022809D1AA6839002000FFF77FFFAB
:10228000EA6829682000FFF771FF2A6939002000F9
:10229000FFF78DFF686802280CD1FF2F05D86A6907
:1022A00039002000FFF79BFF04E06A693900200035
:1022B000FFF7ADFF6A6839002000FFF73FFF761C8B
:1022C000C8E70020F2BD00000068800910F001009E
:1022D0007047426832F480520A43426070470A00F5
:1022E00092B20261704770B504000D000126200013
:1022F000FFF7EAFF00282FD1206819490840296814
:10230000084369680843E96808432969084369691B
:102310000843A9690843E9690843296A084320601A
:10232000606810490840A9680843696950EA11408B
:102330006060A868B0F5006F04D24FF480512000AF
:10234000FFF7C7FF286AB0F5005F03D1696A200074
:10235000FFF7C5FF002006003000C0B270BD0000CE
:102360004000FFFFFBF0FFFF006810F00100704726
:10237000426832F440520A4342607047826832F445
:1023800040720A438260704770B4B2F5004F0FD1BB
:102390005E0816EB4106B6FBF3F6B6B234004FF614
:1023A000F07626403500C4F342063543C56005E0AB
:1023B00011EB5306B6FBF3F6B6B2C66070BC7047BD
:1023C000F8B504000D00012600272000FFF7CCFF20
:1023D000002848D120682B49084069680843E9680B
:1023E000084329690843A96908432060A9682000B7
:1023F000FFF7BEFF69692000FFF7C0FF1C48844259
:1024000004D10320FFF74BF907001FE0194884426D
:1024100004D10C20FFF743F9070017E01648844267
:1024200004D13020FFF73BF907000FE01348844246
:1024300004D1C020FFF7BEF9070007E0104884422E
:1024400004D14FF44070FFF7B5F90700002F0AD010
:102450002868002807D0002006002B68AA693900E8
:102460002000FFF791FF3000C0B2F2BD0000000075
:10247000003801400044004000480040004C00404B
:1024800000500040F369FFEF81B00D48006850F044
:1024900001000B4908600A48006810F00100009034
:1024A00000980848006850F08050064908600548C8
:1024B000006810F080500090009801B0704700BF95
:1024C000601002405810024000B500BF130096464D
:1024D0009446103928BFA0E80C50FAD85FEA417C36
:1024E00028BF0CC048BF40F8042BC90728BF20F8FC
:1024F000022B48BF00F8012B00BD0000A0860100A0
:10250000400D0300801A060000350C0040420F0009
:1025100080841E0000093D0000127A000024F400AF
:1025200000366E010048E801006CDC0210B450F87F
:10253000041B79B10268436802440830DC0744BFD9
:10254000A9F10104E31852F8044B43F8044B091FA6
:10255000F9D1ECE710BC704710B507497944183140
:10256000064C7C44163404E00A68081D1144884770
:102570000146A142F8D110BD2C0000003C00000033
:102580004EF68851CEF20001086840F470000860F1
:10259000BFF34F8FBFF36F8F4FF00070E1EE100A63
:1025A0007047000089FFFFFF10000000E8000000F6
:1025B0000000002000000000FEE7FEE7FEE7FEE767
:1025C000FEE770477047704780B500F003F801BD23
:1025D000704770470348006803490978401801496B
:1025E00008607047080000200C00002000F00BF885
:1025F000002801D0FFF7B0FF0020AFF30080FFF705
:10260000FEFA00F002F80120704700F001B8000067
:102610000746384600F002F8FBE7000080B5AFF34C
:102620000080024A11001820ABBEFBE72600020022
:10263000000000000000000000000000000000009A
:10264000000000000000000000000000000000008A
:10265000000000000000000000000000000000007A
:102660000348006850F4700001490860704700009A
:1026700088ED00E0000000000000000001020304FB
:1026800006070809014880470148004761260008FD
:10269000A52600081000000000093D000000000011
:1026A00001000000AFF30080FFF76AFFFFF79EFF15
:1026B0000000000001020304FFF7FEBFFFF7FEBFAA
:1026C000FFF7FEBFFFF7FEBFFFF7FEBFFFF7FEBF3E
:1026D000FFF7FEBFFFF7FEBFFFF7FEBFFFF7FEBF2E
:1026E000FFF7FEBFFFF7FEBFFFF7FEBFFFF7FEBF1E
:1026F000FFF7FEBFFFF7FEBFFFF7FEBFFFF7FEBF0E
:10270000FFF7FEBFFFF7FEBFFFF7FEBFFFF7FEBFFD
:10271000FFF7FEBFFFF7FEBFFFF7FEBFFFF7FEBFED
:10272000FFF7FEBFFFF7FEBFFFF7FEBFFFF7FEBFDD
:10273000FFF7FEBFFFF7FEBFFFF7FEBFFFF7FEBFCD
:10274000FFF7FEBFFFF7FEBFFFF7FEBFFFF7FEBFBD
:10275000FFF7FEBFFFF7FEBFFFF7FEBFFFF7FEBFAD
:10276000FFF7FEBFFFF7FEBFFFF7FEBFFFF7FEBF9D
:10277000FFF7FEBFFFF7FEBFFFF7FEBFFFF7FEBF8D
:10278000FFF7FEBFFFF7FEBFFFF7FEBFFFF7FEBF7D
:10279000FFF7FEBFFFF7FEBFFFF7FEBFFFF7FEBF6D
:1027A000FFF7FEBFFFF7FEBFFFF7FEBFFFF7FEBF5D
:1027B000FFF7FEBFFFF7FEBFFFF7FEBFFFF7FEBF4D
:1027C000FFF7FEBFFFF7FEBFFFF7FEBFFFF7FEBF3D
:1027D000FFF7FEBFFFF7FEBFFFF7FEBFFFF7FEBF2D
:1027E000FFF7FEBFFFF7FEBFFFF7FEBFFFF7FEBF1D
:0427F000FFF7FEBF32
:04000005080026A524
:00000001FF
