:020000040800F2
:1000000010040020B5260008792600087B26000889
:100010007D2600087F2600088126000800000000D9
:10002000000000000000000000000000832600081F
:1000300085260008000000008726000889260008A1
:10004000E5260008E9260008ED260008F12600084C
:10005000F5260008F9260008FD26000801270008FB
:1000600005270008092700080D27000811270008A8
:1000700015270008192700081D2700082127000858
:1000800025270008292700082D2700083127000808
:1000900035270008392700083D27000841270008B8
:1000A00045270008492700084D2700085127000868
:1000B00055270008592700085D2700086127000818
:1000C00065270008692700086D27000871270008C8
:1000D00075270008792700087D2700088127000878
:1000E00085270008892700088D2700089127000828
:1000F00095270008992700089D270008A1270008D8
:10010000A5270008A9270008AD270008B127000887
:10011000B5270008B9270008BD270008C127000837
:10012000C5270008C9270008CD270008D1270008E7
:10013000D5270008D9270008DD270008E127000897
:10014000E5270008E9270008ED270008F127000847
:10015000F5270008F9270008FD27000801280008F6
:1001600005280008092800080D28000811280008A3
:1001700015280008192800081D2800082128000853
:1001800025280008292800082DE9F8430400002C40
:1001900001D1012069E3DFF8BC09006810F00C0010
:1001A0000600DFF8BC09006810F0030007002078A3
:1001B000C00640F1DE80002E05D00C2E40F08A8073
:1001C000012F40F08780DFF888090068800704D598
:1001D000A069002801D1012047E3DFF87409006815
:1001E000000705D5DFF86809006810F0F00005E0A9
:1001F000DFF80C0A0068000910F0F000216A88425C
:1002000024D2206A00F0AEFC002801D001202CE3AB
:10021000DFF83C09006850F00800DFF83419086086
:10022000DFF82C09006830F0F000216A0843DFF89D
:1002300020190860DFF8CC09006830F47F40E169DC
:1002400050EA0120DFF8BC19086025E0DFF800095A
:10025000006850F00800DFF8F8180860DFF8F008D0
:10026000006830F0F000216A0843DFF8E418086005
:10027000DFF89009006830F47F40E16950EA01201E
:10028000DFF880190860002E06D1206A00F06AFCB1
:10029000002801D00120E8E200F0C0FBDFF8681977
:1002A000DFF8B0281268C2F30312895C11F01F0155
:1002B000C840DFF8A4180860DFF8A008006800F064
:1002C000B9FC80465FFA88F8B8F1000F51D040467B
:1002D000C0B2CAE2A069002834D0DFF87408006810
:1002E00050F00100DFF86818086000F0D5FC050048
:1002F000DFF85C080068800706D400F0CDFC401BE6
:100300000328F5D30320B0E2DFF84408006850F07A
:100310000800DFF83C180860DFF83408006830F0A7
:10032000F000216A0843DFF828180860DFF8D408D5
:10033000006830F47F40E16950EA0120DFF8C4181A
:10034000086016E0DFF80808006840084000DFF8A1
:100350000018086000F0A0FC0500DFF8F407006852
:10036000800706D500F098FC401B0328F5D3032036
:100370007BE22078C00762D5082E03D00C2E0BD16B
:10038000032F09D1DFF8C8070068800357D56068DC
:10039000002854D1012068E26068B0F5803F08D1A0
:1003A000DFF8AC07006850F48030DFF8A41708606D
:1003B00024E06068B0F5A02F10D1DFF89407006842
:1003C00050F48020DFF888170860DFF884070068A1
:1003D00050F48030DFF8781708600FE0DFF870071E
:1003E000006830F48030DFF868170860DFF86007D5
:1003F000006830F48020DFF8581708606068002833
:100400000ED000F049FC0500DFF8440700688003C7
:1004100015D400F041FC401B6528F5D3032024E2ED
:1004200000F03AFC0500DFF828070068800306D5D5
:1004300000F032FC401B6528F5D3032015E220783C
:10044000800758D5042E03D00C2E17D1022F15D1BA
:10045000DFF8FC060068400504D5E068002801D1FB
:10046000012002E2DFF89C07006830F0F8502169B3
:1004700050EA0160DFF88C1708603CE0E068002873
:1004800022D0DFF8CC06006850F48070DFF8C01688
:10049000086000F001FC0500DFF8B40600684005C4
:1004A00006D400F0F9FB401B0328F5D30320DCE160
:1004B000DFF85007006830F0F850216950EA016019
:1004C000DFF84017086016E0DFF88406006830F4B3
:1004D0008070DFF87C16086000F0DEFB0500DFF8B6
:1004E00070060068400506D500F0D6FB401B0328C7
:1004F000F5D30320B9E12078000730D560690028E2
:1005000016D0DFF8FC06006850F00100DFF8F016A6
:10051000086000F0C1FB0500DFF8E4060068800712
:100520001DD400F0B9FB401B0328F5D303209CE148
:10053000DFF8CC06006840084000DFF8C416086009
:1005400000F0AAFB0500DFF8B8060068800706D5B2
:1005500000F0A2FB401B0328F5D3032085E120789F
:10056000400740F196805FF00009DFF8A0060068C0
:10057000C00010D4DFF89406006850F08050DFF817
:100580008C160860DFF88406006810F08050009038
:10059000009801208146DFF878060068C00516D46F
:1005A000DFF86C06006850F48070DFF864160860AD
:1005B00000F072FB0500DFF858060068C00506D49D
:1005C00000F06AFB401B0328F5D303204DE1A0682F
:1005D000012808D1DFF83C06006850F00100DFF880
:1005E0003416086023E0A068052810D1DFF824063F
:1005F000006850F00400DFF81C160860DFF81406ED
:10060000006850F00100DFF80C1608600FE0DFF81A
:100610000406006840084000DFF8F8150860DFF8BD
:10062000F405006830F00400DFF8E8150860A06801
:10063000002810D000F030FB0500DFF8D805006876
:10064000800719D400F028FB401B41F28931884211
:10065000F3D3032009E100F01FFB0500DFF8B40528
:100660000068800708D500F017FB401B41F2893174
:100670008842F3D30320F8E05FFA89F9B9F1010F5A
:1006800007D1DFF88805006830F08050DFF87C156E
:100690000860A06A002800F0E780A06A022840F005
:1006A000BE80DFF8BC040068070017F00300E16AB1
:1006B000884228D117F07000216B491EB0EB011F52
:1006C00021D117F4FE40616BB0EB012F1BD1A06B61
:1006D000072801D1002000E0012017F400318142F9
:1006E00011D117F4C000E16B891E0905490D4905B8
:1006F000884208D117F0C060216C891E090611F0EC
:100700007E41884267D00C2E63D0DFF84404006835
:10071000400104D4DFF838040068C00001D501208E
:10072000A3E0DFF82C04006830F08070DFF82014BC
:10073000086000F0B1FA0500DFF8140400688001D9
:1007400006D500F0A9FA401B0328F5D303208CE05E
:10075000DFF80C040068DFF8C0140840E16A0843C1
:10076000216B491E50EA0110616B50EA0120E16BD8
:10077000891E0905490D49050843216C891E090692
:1007800011F07E410843A16B090950EA4140DFF8AE
:10079000D0130860DFF8B803006850F08070DFF80D
:1007A000B0130860DFF8B803006850F08070DFF81D
:1007B000B013086000F070FA0500DFF894030068D9
:1007C000800151D400F068FA401B0328F5D30320C0
:1007D0004BE0012049E0DFF878030068800143D452
:1007E000DFF86C03006850F08070DFF86413086075
:1007F000DFF86C03006850F08070DFF86413086065
:1008000000F04AFA0500DFF84803006880012BD4A5
:1008100000F042FA401B0328F5D3032025E00C2EFC
:1008200020D0DFF82C03006830F08070DFF8201350
:10083000086000F031FA0500DFF814030068800159
:1008400006D500F029FA401B0328F5D303200CE05D
:10085000DFF80C030068DFF8C4130840DFF800136A
:10086000086001E0012000E00020BDE8F283F8B557
:1008700004000D00002C01D10120CEE0DFF8A00320
:10088000006810F00700A84211D2DFF89403006856
:10089000C008C0002843DFF888130860DFF8800331
:1008A000006810F00700A84201D00120B5E02078D0
:1008B000800711D5DFF89C02006810F0F000A168F5
:1008C000884209D2DFF88C02006830F0F000A1689D
:1008D0000843DFF8801208602078C00743D56068BD
:1008E000032806D1DFF86802006880011CD40120CB
:1008F00093E06068022806D1DFF8540200688003A4
:1009000012D4012089E06068002806D1DFF8400297
:100910000068800708D401207FE0DFF83402006817
:10092000400501D4012078E0DFF828020068800843
:10093000800061680843DFF81C12086000F0ACF921
:100940000600DFF81002006810F00C006168B0EBE0
:10095000810F08D000F0A0F9801B41F28931884254
:10096000EFD3032059E02078800711D5A068DFF885
:10097000E411096811F0F001884209D2DFF8D401CE
:10098000006830F0F000A1680843DFF8C811086083
:10099000DFF88C02006810F00700854211D2DFF802
:1009A00080020068C008C0002843DFF874120860A5
:1009B000DFF86C02006810F00700A84201D00120A7
:1009C0002BE02078400707D56248006830F4E060EB
:1009D000E16808435F4908602078000708D55D4852
:1009E000006830F46050216950EAC100594908603C
:1009F00000F014F8DFF81012564A1268C2F303121E
:100A0000895C11F01F01C8405349086053480068D1
:100A100000F010F907003800C0B2F2BDF0B40021B8
:100A20000020DFF830C1DCF800C01CF00C0C66467A
:100A3000DFF82CC1DCF800C01CF0030C6746002E68
:100A400003D00C2E1FD1012F1DD1DFF804C1DCF81B
:100A500000C05FEA0C7C07D4DFF8A4C1DCF800C05A
:100A6000CCF3032C614606E0DFF8E4C0DCF800C0FC
:100A7000CCF3031C6146DFF8ACC15CF82110002EFA
:100A80000CD108000AE0042E03D1DFF89CC16046B7
:100A900004E0082E02D1DFF894C160460C2E38D154
:100AA000DFF8BCC0DCF800C01CF0030C63469C46B9
:100AB000BCF1020F03D0BCF1030F04D007E0DFF854
:100AC00068C1624604E0DFF864C1624600E00A00E3
:100AD000DFF88CC0DCF800C0CCF3021C1CF1010C68
:100AE0006546DFF87CC0DCF800C0CCF3062C0CFBBC
:100AF00002F2B2FBF5F2DFF868C0DCF800C0CCF31C
:100B0000416C1CF1010C5FEA4C0C6446B2FBF4FC36
:100B10006046F0BC704710480068704780B5FFF72A
:100B2000FAFF43490B4A1268C2F30222895C11F0B2
:100B30001F01C84002BD80B5FFF7EDFF3C49054AE3
:100B40001268C2F3C222895C11F01F01C84002BDC5
:100B500000100240081002400400002000000020A5
:100B60000C10024070B582B00400002627480068CF
:100B7000C00003D500F096F8050014E02348006893
:100B800050F08050214908602048006810F08050E3
:100B90000090009800F086F805001C48006830F0CE
:100BA00080501A490860B5F5007F09D1812C15D312
:100BB000A12C02D30220060010E0012006000DE067
:100BC000812C02D30320060008E0802C02D10220F1
:100BD000060003E0702C01D10120060010480068D7
:100BE000C008C00030430E4908600D48006810F08E
:100BF0000700B04201D0012000E0002076BD0000D7
:100C00009410024004100240A4260008581002402C
:100C100000700040901002408C809DF9FCFFEEFEB9
:100C200000200240502500080024F40000127A0041
:100C3000DC26000838B50400002514480078002898
:100C40001ED04FF47A7011490978B0FBF1F01049C9
:100C50000968B1FBF0F000F0F0F800280DD1102C7D
:100C600008D2002221005FF0FF3000F0D3F80948DD
:100C7000046007E00120050004E00120050001E018
:100C8000012005002800C0B232BD00BF08000020CE
:100C9000040000200000002001480068704700BFE9
:100CA000A0040020DFF89400006810F4C0607047D2
:100CB0000100B1F5007F2CD1DFF88000006810F44E
:100CC000C060B0F5007F36D0DFF87000006830F407
:100CD000C06050F40070DFF864301860DFF8600026
:100CE000006832235843DFF85C30B0FBF3F0401C5F
:100CF0000200DFF854000068400503D5002A01D047
:100D0000521EF6E7DFF840000068400513D50320C7
:100D100012E0DFF82800006810F4C060B0F5806FC2
:100D200009D0DFF81800006830F4C06050F480602B
:100D3000DFF80830186000207047000000700040A5
:100D40000400002040420F001470004010F0070221
:100D50003D4B1B6819004FF6FF0319403B4B53EA0C
:100D600002231943384B1960704737480068C0F3B5
:100D70000220704710B440B2002804D40A01344B5A
:100D800040B21A5407E00A01324B40B210F00F048F
:100D9000234403F8042C10BC704770B4030013F014
:100DA0000704D4F10706052E01D3042001E0D4F195
:100DB0000700261D072E01D2002500E0E51E0126B2
:100DC00016FA00F0401E0840A8400121A940491E23
:100DD0001140084370BC704710B50400601EB0F1AC
:100DE000807F01D301200EE0601E1B4908600F21A7
:100DF0005FF0FF30FFF7BEFF0020184908600720B2
:100E000017490860002010BD10B504002000FFF74E
:100E10009DFF10BDF8B504000D0016000027FFF778
:100E2000A4FF0700320029003800FFF7B6FF0100D9
:100E3000200040B2FFF79EFFF1BD10B50400200076
:100E4000FFF7CAFF10BD00000CED00E00000FA053E
:100E500000E400E018ED00E014E000E018E000E03D
:100E600010E000E010B50400002C01D1012035E0B5
:100E7000A0690028FFD1E06F002805D1002084F888
:100E80007800200000F08BFC2420E06720680068D8
:100E90004008400021680860606A002802D02000F5
:100EA00000F0FEFA200000F018F9012801D101201D
:100EB00014E02068406830F4904021684860206861
:100EC000806830F02A00216888602068006850F04F
:100ED000010021680860200000F04FFB10BD2DE9E3
:100EE000F04782B004000D0016001F00E06F2028BC
:100EF0005AD1002D02D0B6B2002E01D1012054E00B
:100F00000020C4F884002120E067FFF7C5FE824678
:100F1000A4F85060A4F85260A068B0F5805F06D1D4
:100F20002069002803D100208046A94602E0A84697
:100F300000208146B4F85200002824D00097534680
:100F400000228021200000F080FB002803D0202018
:100F5000E067032029E0B8F1000F08D1B9F80000DC
:100F6000C005C00D2168088519F1020905E098F84F
:100F700000002168088518F10108B4F85200401EED
:100F8000A4F85200D6E700975346002240212000E3
:100F900000F05BFB002803D02020E067032004E082
:100FA0002020E067002000E00220BDE8F6872DE960
:100FB000F84F04000D0016001F00D4F88000202810
:100FC00040F08880002D02D0B6B2002E01D1012061
:100FD00081E00020C4F884002220C4F880000020B2
:100FE0002066FFF759FE8346A4F85860A4F85A60BB
:100FF000A068B0F5805F0BD12069002804D140F2D1
:10100000FF10A4F85C0023E0FF20A4F85C001FE0C0
:10101000A06800280AD12069002803D1FF20A4F885
:101020005C0015E07F20A4F85C0011E0A068B0F13E
:10103000805F0AD12069002803D17F20A4F85C00DA
:1010400006E03F20A4F85C0002E00020A4F85C0069
:10105000B4F85C008246A068B0F5805F06D12069D4
:10106000002803D100208046A94602E0A8460020BF
:101070008146B4F85A00002827D000975B4600222A
:101080002021200000F0E1FA002804D02020C4F83C
:10109000800003201FE0B8F1000F08D12068808C89
:1010A0001AEA0000A9F8000019F1020907E0206817
:1010B000808C1AEA000088F8000018F10108B4F8E2
:1010C0005A00401EA4F85A00D3E72020C4F880003C
:1010D000002000E00220BDE8F28F2DE9F047040077
:1010E00000262068DFF85C168842FFD0A0682169DE
:1010F000084361690843E169084382462068006843
:10110000DFF8441608405AEA0000216808602068A9
:10111000406830F44050E168084321684860A069A5
:1011200082462068DFF81C16884202D0206A50EA06
:101130000A0A2068806830F430605AEA00002168AA
:1011400088602068DFF8041688421BD1DFF80006AB
:10115000006810F00300002805D0022806D008D34C
:10116000032809D00BE001200500BDE002200500A6
:10117000BAE004200500B7E008200500B4E0102024
:101180000500B1E02068DFF8CC1588421CD1DFF8FB
:10119000C005006810F00C00002806D004280AD012
:1011A000082805D00C2809D00BE0002005009BE0A2
:1011B0000220050098E00420050095E008200500C5
:1011C00092E0102005008FE02068DFF88C1588423F
:1011D0001CD1DFF87C05006810F03000002806D034
:1011E00010280AD0202805D0302809D00BE0002094
:1011F000050079E00220050076E00420050073E098
:101200000820050070E0102005006DE02068DFF880
:101210004C1588421CD1DFF83805006810F0C0007A
:10122000002806D040280AD0802805D0C02809D040
:101230000BE00020050057E00220050054E00420E8
:10124000050051E0082005004EE0102005004BE0AD
:101250002068DFF80C1588421FD1DFF8F40400681D
:1012600010F44070002809D0B0F5807F0CD0B0F5A4
:10127000007F06D0B0F5407F09D00BE000200500CC
:1012800032E0022005002FE0042005002CE00820B9
:10129000050029E01020050026E02068DFF8A414EE
:1012A00088421FD1DFF8A804006810F440600028CD
:1012B00009D0B0F5806F0CD0B0F5006F06D0B0F556
:1012C000406F09D00BE0002005000DE00220050072
:1012D0000AE00420050007E00820050004E01020D3
:1012E000050001E0102005002068DFF8581488424E
:1012F00048D1EDB22800002806D0022808D00428E2
:101300000AD008280CD00FE0FFF708FC07000FE018
:10131000DFF8500407000BE0FFF780FB070007E051
:101320004FF40040070003E0002007000120060002
:10133000002F00F0AD80606803214843874205D349
:1013400060684FF480514843B84202D20120060041
:101350009EE04FF48072606840080021E2FB0701C4
:101360006268002300F068FA8146B9F5407F06D331
:10137000B9F5801F03D22068C0F80C9088E00120E6
:10138000060085E0E069B0F5004F46D1EDB22800D7
:10139000002808D001280AD002280CD004280ED03A
:1013A000082810D013E0FFF7B9FB070013E0FFF7A0
:1013B000C2FB07000FE0DFF8AC0307000BE0FFF70C
:1013C0002DFB070007E04FF40040070003E000207A
:1013D000070001200600002F5AD06068400810EB7B
:1013E00047006168B0FBF1F08146B9F1100F11D3ED
:1013F000B9F5803F0ED24FF6F07010EA0900804632
:10140000C9F3420050EA08081FFA88F82068C0F8BB
:101410000C803DE0012006003AE0EDB228000028F3
:1014200008D001280AD002280CD004280ED00828A1
:1014300010D013E0FFF772FB070013E0FFF77BFB10
:1014400007000FE0DFF81C0307000BE0FFF7E6FAE8
:10145000070007E04FF40040070003E0002007000A
:1014600001200600002F13D0606817EB5000616860
:10147000B0FBF1F08146B9F1100F07D3B9F5803F09
:1014800004D2484680B22168C86001E0012006000D
:101490000020A0660020E0663000C0B2BDE8F08702
:1014A00090F82410090707D50168496831F4004114
:1014B000426B11430268516090F82410C90707D5A8
:1014C0000168496831F40031826A11430268516051
:1014D00090F82410890707D50168496831F48031F4
:1014E000C26A11430268516090F82410490707D579
:1014F0000168496831F48021026B11430268516030
:1015000090F82410C90607D50168896831F4805124
:10151000826B11430268916090F82410890607D508
:101520000168896831F40051C26B1143026891600F
:1015300090F82410490613D50168496831F48011E8
:10154000026C114302685160016CB1F5801F07D134
:101550000168496831F4C001426C1143026851606E
:1015600090F82410090607D50168496831F4002174
:10157000826C114302685160704738B50400002046
:10158000C4F88400FFF788FB0500206800680007A6
:101590001DD57FF07E4000902B0000225FF40011EB
:1015A000200000F052F8002811D0216851E8002FE7
:1015B00032F080021000226842E80003002BF4D1D0
:1015C0002020E067002084F8780003203CE02068B9
:1015D000006840072BD57FF07E4000902B00002252
:1015E0005FF48001200000F030F800281FD021684F
:1015F00051E8002F32F490721000226842E8000394
:10160000002BF4D12168083151E8002F5208520014
:1016100010002268083242E80003002BF2D120209B
:10162000C4F88000002084F8780003200CE020201B
:10163000E0672020C4F8800000202066002060665B
:10164000002084F87800002032BD2DE9F04104002C
:101650000D0016001F00DDF818802068C0692840C2
:10166000A84201D1012000E00020F6B2B04235D1FD
:1016700018F1010FF1D0FFF70FFBC01B804502D31B
:10168000B8F1000F01D1032029E02068006840076D
:10169000E3D52068C06900070DD5082021680862DD
:1016A000200000F01EF80820C4F88400002084F810
:1016B0007800012013E02068C0690005CDD54FF403
:1016C000006021680862200000F00BF82020C4F8B8
:1016D0008400002084F87800032000E00020BDE8AA
:1016E000F08110B4026852E8003F33F4907319009F
:1016F000036843E80014002CF4D10268083252E871
:10170000003F5B085B0019000368083343E80014DE
:10171000002CF2D1016E01290AD1026852E8003F83
:1017200033F010031900036843E80014002CF4D1CF
:101730002021C0F88010002101660021816610BCC4
:101740007047000000800040F369FFEF003801405F
:10175000881002400044004000480040004C004017
:10176000005000400024F40081B02E48006850F082
:1017700001002C4908602B48006810F0010000901F
:1017800000982948006850F0805027490860264892
:10179000006810F080500090009801B0704710B5BC
:1017A000A8B0040001A8142100F0BEF806A8882102
:1017B00000F0BAF820681D49884230D10220069016
:1017C0000020159006A800F0B3F8002801D000F022
:1017D00053FD1548006850F4003013490860124862
:1017E000006810F40030009000981148006850F034
:1017F00008000F4908600E48006810F008000090CB
:1018000000986020019002200290002003900320A5
:1018100004900720059001A9064800F02FFD28B08C
:1018200010BD00006010024058100240004400400B
:101830004C100240000C00481B4213D1094236D123
:101840002AB18446B0FBF2F002FB10C2704700F0F0
:1018500031BEFCD30022002370470B0002000021A0
:1018600000207047904271EB030CF6D370B5B1FACB
:1018700081F4B3FA83F52C1BA340C4F1200532FA9E
:1018800005F63343A2405FF00046E64002E05B0805
:101890005FEA3202841A71EB030524BF2046294611
:1018A0007641F4D302000B003000002170BD012A04
:1018B000CFD970B5140C20D0B1FA81F4B2FA82F508
:1018C000C4F120046419B4F12006D6D3B2405FF00D
:1018D0000044F440002502E052085FEA3303C61AD0
:1018E00071EB020E24BF3046714664416D41F3D363
:1018F00002000B002000290070BD0C46B1FBF2F184
:1019000002FB11452D0445EA1045B5FBF2F402FB3C
:10191000145580B240EA0545B5FBF2F002FB1052C7
:1019200040EA044070BD0000002200F0C5BD000088
:101930002DE9F843040000275FF000082068000547
:1019400034D5606E002812D0B0F5800F15D0B0F5F8
:10195000000F03D0B0F5400F16D016E0DFF8640496
:10196000006850F48030DFF85C1408600FE000215C
:10197000201D00F031FA070009E0002114F12000D9
:1019800000F0FAFA070002E001E001200700FFB2D0
:10199000002F0AD1DFF83004006830F44000616E97
:1019A0000843DFF82414086000E0B8462068C0044B
:1019B00034D5A06E002812D0B0F1807F15D0B0F1E0
:1019C000007F03D0B0F1407F16D016E0DFF8F403BB
:1019D000006850F48030DFF8EC1308600FE000215D
:1019E000201D00F0F9F9070009E0002114F12000A2
:1019F00000F0C2FA070002E001E001200700FFB298
:101A0000002F0AD1DFF8C003006830F04070A16EEB
:101A10000843DFF8B413086000E0B846206880038C
:101A200040F189805FF00009DFF8A0030068C00082
:101A300010D4DFF89803006850F08050DFF88C1362
:101A40000860DFF88803006810F08050009000986C
:101A500001208146DFF87803006850F48070DFF8D9
:101A600070130860FFF718F90600DFF864030068D8
:101A7000C00506D4FFF710F9801B0328F5D3032017
:101A80000700FFB2002F48D1DFF84803006810F4C8
:101A900040700500002D1CD0D4F88400854218D079
:101AA000DFF83003006830F440700500DFF82403ED
:101AB000006850F48030DFF81C130860DFF814036E
:101AC000006830F48030DFF80C130860DFF804039E
:101AD0000560E80710D5FFF7DFF80600DFF8F4022D
:101AE0000068800708D4FFF7D7F8801B41F28931DE
:101AF0008842F3D303200700FFB2002F0BD1DFF899
:101B0000D402006830F44070D4F884100843DFF841
:101B1000C412086002E0B84600E0B8465FFA89F9EE
:101B2000B9F1010F07D1DFF8A402006830F080504E
:101B3000DFF8981208602078C00709D5DFF888021E
:101B4000006880088000A16B0843DFF87C12086001
:101B50002078800709D5DFF87002006830F00C00AB
:101B6000E16B0843DFF8601208602078400709D570
:101B7000DFF85402006830F03000216C0843DFF8D1
:101B8000481208602078000709D5DFF83C02006899
:101B900030F0C000616C0843DFF82C120860207838
:101BA000C00609D5DFF82002006830F44070A16C4F
:101BB0000843DFF8141208602078800609D5DFF8A2
:101BC0000802006830F44060E16C0843DFF8F81167
:101BD00008602068800509D5DFF8EC01006830F462
:101BE0004020E16D0843DFF8E011086020684005FF
:101BF00009D5DFF8D401006830F44010216E0843A5
:101C0000DFF8C41108602078400609D5DFF8B80174
:101C1000006830F44050216D0843DFF8AC110860D3
:101C20002078000609D5DFF8A001006830F44040B4
:101C3000616D0843DFF8901108602068C00509D580
:101C4000DFF88401006830F44030A16D0843DFF80C
:101C5000781108602068800421D5DFF86C010068E5
:101C600030F04060E16E0843DFF85C110860E06E20
:101C7000B0F1006F06D15348006850F4801051490C
:101C800008600CE0E06EB0F1806F08D10121201DEA
:101C900000F0A2F80700FFB2002F00D0B84620687D
:101CA000000321D5DFF82001006830F04060216F8B
:101CB0000843DFF814110860206FB0F1006F06D1FF
:101CC0004048006850F480103E4908600CE0206FE6
:101CD000B0F1806F08D10121201D00F07DF80700D0
:101CE000FFB2002F00D0B8462068400321D5DFF8AE
:101CF000D800006830F04060616F0843DFF8C8101A
:101D00000860606FB0F1006F06D12E48006850F493
:101D100080102C4908600CE0606FB0F1806F08D132
:101D20000121201D00F058F80700FFB2002F00D05D
:101D3000B8462068400425D5DFF88C00006830F0F4
:101D40004050A16F0843DFF880100860A06FB0F129
:101D5000805F09D10221201D00F03EF80700FFB28C
:101D6000002F0FD0B8460DE0A06FB0F1005F09D191
:101D7000022114F1200000F0FFF80700FFB2002F4D
:101D800000D0B8462068000409D5DFF83C000068A0
:101D900030F08040E16F0843DFF82C1008602068C5
:101DA000C0030AD5DFF82000006820F00040D4F816
:101DB00080100843DFF8101008604046C0B2BDE84C
:101DC000F28300000C1002408810024058100240BC
:101DD0000070004090100240F8B504000D0000278C
:101DE000DFF8EC02006810F0030F16D0DFF8E00215
:101DF000006810F00300216888420BD12068002899
:101E000008D0DFF8CC020068C0F30210401C616803
:101E100088423AD00120070037E02068012804D02A
:101E200020D3032811D008D31CE0DFF8A0020068FB
:101E3000800701D40120070016E0DFF89002006857
:101E4000400501D4012007000EE0DFF880020068A1
:101E5000800306D4DFF874020068400301D4012037
:101E6000070001E001200700FFB2002F0DD1DFF8CD
:101E70006002006830F07300216808436168491E01
:101E800050EA0110DFF848120860FFB2002F70D14D
:101E9000DFF83802006830F08060DFF83012086048
:101EA000FEF7FAFE0600DFF824020068000106D5FE
:101EB000FEF7F2FE801B0328F5D303200700FFB2D4
:101EC000002F56D1002D10D1DFF808020068DFF88E
:101ED00008120840A16850EA0120E168090950EAA7
:101EE0004140DFF8F011086026E0012D12D1DFF843
:101EF000E4010068DFF8E4110840A16850EA01201D
:101F00002169891E0905490D49050843DFF8C411F7
:101F1000086011E0DFF8BC010068DFF8C411084078
:101F2000A16850EA01206169891E090611F07E410D
:101F30000843DFF8A01108606448006850F0806032
:101F400062490860FEF7A8FE0600604800680001CC
:101F500006D4FEF7A1FE801B0328F6D3032007005A
:101F6000FFB2002F05D15B480068A16908435949B9
:101F700008603800C0B2F2BDF8B504000D000027BB
:101F80005348006810F0030F14D05148006810F057
:101F90000300216888420AD12068002807D04C48F5
:101FA0000068C0F30210401C6168884234D00120F0
:101FB000070031E02068012804D01CD303280FD08B
:101FC00007D318E041480068800701D401200700CA
:101FD00013E03E480068400501D4012007000CE0F2
:101FE0003A480068800305D438480068400301D4AB
:101FF0000120070001E001200700FFB2002F0BD1F4
:102000003348006830F07300216808436168491E56
:1020100050EA01102E490860FFB2002F52D12B4820
:10202000006830F0805029490860FEF735FE060050
:1020300026480068800006D5FEF72EFE801B032888
:10204000F6D303200700FFB2002F3BD1002D0DD1A6
:102050002448006820490840A16850EA0120E1684E
:10206000090950EA41401F4908600EE01D48006818
:102070001B490840A16850EA01202169891E090610
:1020800011F07E410843174908601048006850F07D
:1020900080500E490860FEF7FFFD06000B480068FF
:1020A000800006D4FEF7F8FD801B0328F6D303203A
:1020B0000700FFB2002F05D10A4800686169084394
:1020C000084908603800C0B2F2BD000000100240AC
:1020D0000C10024010100240FF80FDFFFF809FFFA8
:1020E000FF80FFF91410024080B500F0FFF900F006
:1020F00027F800F084F800F05AF803230122584929
:102100005848FEF754FF002805D103230122544903
:102110005448FEF7E4FE0020082804DA0021504A63
:102120001154401CF8E750480078401C4E49087094
:10213000032301224C4801784A48FEF7D0FEDCE731
:1021400000B597B005A84421FFF7EEFB68461421BF
:10215000FFF7EAFB4FF40070FEF7AAFD002801D05C
:1021600000F08AF81020059001200B9000200C90C0
:1021700060200D9000200F9005A8FEF705F80028BC
:1021800001D000F079F80F2000900020019000208D
:102190000290002003900020049000216846FEF782
:1021A00066FB002801D000F067F817B000BD80B5CD
:1021B0002E482C4908605FF4E1302A49486000202D
:1021C0002849886000202749C86000202549086107
:1021D0000C202449486100202249886100202149BF
:1021E000C86100201F49086200201E4948621D483E
:1021F000FEF738FE002801D000F03EF801BD00B522
:1022000087B001A81421FFF78FFB1948006850F030
:102210000200174908601648006810F0020000909C
:1022200000981348006850F00800114908601048F1
:10223000006810F0080000900098002204210D486A
:1022400000F016F904200190012002900020039074
:102250000020049001A9074800F010F807B000BD65
:102260009804002010040020A40400200044004032
:102270004C1002400004004872B6FEE778B4002219
:102280000D68D540002D00F0F1800D6801269640C4
:1022900035402B00002B00F0E7800D7915F0030589
:1022A000012D04D00D7915F00305022D19D1856893
:1022B0002C0003251600F6B27600B540AC43CD687D
:1022C0001600F6B27600B5402C43846045682C00B9
:1022D00001259540AC434D68C5F3001595402C434E
:1022E00044600D7915F00305032D0AD1C56A2C0051
:1022F00001259540AC434D68C5F3C00595402C437E
:10230000C4620D7915F00305032D0ED0C5682C00AD
:1023100003251600F6B27600B540AC438D68160072
:10232000F6B27600B5402C43C4600D7915F0030574
:10233000022D16D1D50800EB85052D6A2C000F253E
:1023400012F00706F6B2B600B540AC430D6912F0C4
:102350000706F6B2B600B5402C43D50800EB85055C
:102360002C6205682C0003251600F6B27600B540F5
:10237000AC430D7915F003051600F6B27600B540B2
:102380002C4304604D6815F4403F6DD03D4D2D68E1
:1023900055F001053B4E35603A4D2D6815F00105AD
:1023A0000095009D384D960855F826502C000F25B5
:1023B00012F00306F6B2B600B540AC43B0F1904F50
:1023C00001D100251EE0314DA84201D1012519E0BF
:1023D0002F4DA84201D1022514E02E4DA84201D173
:1023E00003250FE02C4DA84201D104250AE02B4D16
:1023F000A84201D1052505E0294DA84201D10625B5
:1024000000E0072512F00306F6B2B600B5402C43F3
:102410001D4D960845F82640224D2D682C009C4302
:102420004D68ED0200D51C431E4D2C601E4D2D68DD
:102430002C009C434D68AD0200D51C431A4D2C6006
:102440001A4D2D682C009C434D68AD0300D51C43EC
:10245000164D2C60164D2D682C009C434D68ED03E5
:1024600000D51C43124D2C60521C09E771BC70470B
:10247000D2B2002A02D089B2816101E089B28162C0
:10248000704700006010024008000140000400484E
:1024900000080048000C00480010004800140048E4
:1024A00000180048080401400C04014004040140E5
:1024B000000401407047000000B500BF13009646BD
:1024C0009446103928BFA0E80C50FAD85FEA417C46
:1024D00028BF0CC048BF40F8042BC90728BF20F80C
:1024E000022B48BF00F8012B00BD000010B50024EE
:1024F0000320FEF789FC0F20FEF79CFB002802D08A
:102500000120040001E0FFF72FF92000C0B210BD48
:1025100019E050F8041BCB0744BFA9F10103591877
:10252000121F0023042A41F8043BF9D25FEA827C9F
:102530000B4604D54FF0000CA1F800C09B1CD1073E
:1025400044BF0021197050F8042B002AE1D17047D4
:10255000A0860100400D0300801A060000350C0023
:1025600040420F0080841E0000093D0000127A00E6
:102570000024F40000366E010048E801006CDC0223
:1025800010B450F8041B79B1026843680244083063
:10259000DC0744BFA9F10104E31852F8044B43F8E7
:1025A000044B091FF9D1ECE710BC704710B507497F
:1025B00079441831064C7C44163404E00A68081D3E
:1025C000114488470146A142F8D110BD2C000000FB
:1025D0004C0000004EF68851CEF20001086840F42D
:1025E00070000860BFF34F8FBFF36F8F4FF0007024
:1025F000E1EE100A7047000019FFFFFF980000008D
:10260000100400200000000079FFFFFF0C00000014
:10261000C0000000000000200000000000F00BF8E7
:10262000002801D0FFF7C2FF0020AFF30080FFF7C2
:102630005BFD00F002F80120704700F001B80000D7
:102640000746384600F002F8FBE7000080B5AFF31C
:102650000080024A11001820ABBEFBE726000200F2
:102660000348006803490978401801490860704729
:10267000A004002008000020FEE7FEE7FEE7FEE7DA
:10268000FEE770477047704780B5FFF7E9FF01BD6F
:102690000348006850F4700001490860704700006A
:1026A00088ED00E0000000000000000001020304CB
:1026B000060708090148804701480047912600089D
:1026C000C5260008AFF30080FFF784FFFFF7A6FFE1
:1026D0001000000000093D000100000000000000A3
:1026E00001020304FFF7FEBFFFF7FEBFFFF7FEBFC7
:1026F000FFF7FEBFFFF7FEBFFFF7FEBFFFF7FEBF0E
:10270000FFF7FEBFFFF7FEBFFFF7FEBFFFF7FEBFFD
:10271000FFF7FEBFFFF7FEBFFFF7FEBFFFF7FEBFED
:10272000FFF7FEBFFFF7FEBFFFF7FEBFFFF7FEBFDD
:10273000FFF7FEBFFFF7FEBFFFF7FEBFFFF7FEBFCD
:10274000FFF7FEBFFFF7FEBFFFF7FEBFFFF7FEBFBD
:10275000FFF7FEBFFFF7FEBFFFF7FEBFFFF7FEBFAD
:10276000FFF7FEBFFFF7FEBFFFF7FEBFFFF7FEBF9D
:10277000FFF7FEBFFFF7FEBFFFF7FEBFFFF7FEBF8D
:10278000FFF7FEBFFFF7FEBFFFF7FEBFFFF7FEBF7D
:10279000FFF7FEBFFFF7FEBFFFF7FEBFFFF7FEBF6D
:1027A000FFF7FEBFFFF7FEBFFFF7FEBFFFF7FEBF5D
:1027B000FFF7FEBFFFF7FEBFFFF7FEBFFFF7FEBF4D
:1027C000FFF7FEBFFFF7FEBFFFF7FEBFFFF7FEBF3D
:1027D000FFF7FEBFFFF7FEBFFFF7FEBFFFF7FEBF2D
:1027E000FFF7FEBFFFF7FEBFFFF7FEBFFFF7FEBF1D
:1027F000FFF7FEBFFFF7FEBFFFF7FEBFFFF7FEBF0D
:10280000FFF7FEBFFFF7FEBFFFF7FEBFFFF7FEBFFC
:10281000FFF7FEBFFFF7FEBFFFF7FEBFFFF7FEBFEC
:0C282000FFF7FEBFFFF7FEBFFFF7FEBF93
:04000005080026C504
:00000001FF
